:08000000803102288731F02F46
:100CD400F00023009E1C6F2E702E6B2E70089A005D
:100CE4000800F1000830F0002830890B772E22002C
:100CF4008C1171187E2E812E22008C14832E2200DA
:100D04008C107136F1002830890B862E22008C1548
:100D140020008D1F8E2E8F2E902EF1170130F002A1
:100D24007008031D962E972E762E71080800220057
:100D34000C1101308631732686312000A000423028
:100D44008631732686312000A10021080339090762
:100D5400033EF3000230F400BC2E7408203E8600EB
:100D64008701003086317326863181000130F2001C
:100D74007208F40773087402031CC12EC22EAF2E2E
:100D840022000C1505307406031DC92ECA2EDC2E54
:100D94000530F4007408203E860087017F3081000E
:100DA4000130F2007208F40709307402031CDB2ED0
:100DB400DC2ECC2E20002309A3002409A400080063
:100DC400D4302100950020009501F03021009900D5
:100DD40022001E1423001D161E159F15D0309B00E3
:100DE4009E169D1721008C0184308D0023008C01F8
:100DF4008D0121302000980022008D140330F6006C
:100E04000830F5007730890B052FF50B052FF60B0D
:100E1400052F000022008D100330F6000830F50085
:100E24007730890B132FF50B132FF60B132F0000BC
:100E340022008D140330F6000830F5007730890B5A
:100E4400212FF50B212FF60B212F000022008D10EE
:100E54000330F6000830F5007730890B2F2FF50B9F
:100E64002F2FF60B2F2F00000630F5003030890BA2
:100E7400392FF50B392F0032863199268631F70147
:100E8400F801F9012000231E482F492F4A2FF71794
:100E9400231F4D2F4E2F4F2F7717A31F522F532F42
:100EA400542FF716A31E572F582F592F7716241E89
:100EB4005C2F5D2F5E2FF715241F612F622F632F88
:100EC4007715A41F662F672F682FF714A41E6B2FA6
:100ED4006C2F6D2F7714241D702F712F722FF8171C
:100EE400241C752F762F772F7817A41D7A2F7B2F2C
:100EF4007C2FF816A41C7F2F802F812F7816231C9B
:100F0400842F852F862FF815A31D892F8A2F8B2FC9
:100F14007815A31C8E2F8F2F902FF814231D932F39
:100F2400942F952F78144F30280203189A2F9B2F53
:100F34009C2FF917B9302802031CA12FA22FA32F2D
:100F440079174F3027020318A82FA92FAA2FF916B3
:100F5400B9302702031CAF2FB02FB12F79164F30B1
:100F640026020318B62FB72FB82FF915B930260269
:100F7400031CBD2FBE2FBF2F79154F302502031838
:100F8400C42FC52FC62FF914B9302502031CCB2F4B
:100F9400CC2FCD2F7914780879047704031DD32F2F
:100FA400D42FD72F22000D14362F22000D10993084
:100FB40086316A268631770886316A268631780832
:100FC40086316A268631790886316A2686314F3021
:100FD40086316A268631362F80310228F701F801DE
:100FE400F9012000A001A101A201A301A401A5010E
:0C0FF400A601A701A80120008631E22E12
:020000040001F9
:04000E00843FFF1B11
:00000001FF
